{
	"Contract/Game.sol": {
		"SelfDestructFactory": {
			"abi": [
				{
					"inputs": [
						{
							"internalType": "address payable",
							"name": "vault",
							"type": "address"
						}
					],
					"name": "deployAndDestroy",
					"outputs": [],
					"stateMutability": "payable",
					"type": "function"
				}
			],
			"devdoc": {
				"kind": "dev",
				"methods": {},
				"version": 1
			},
			"evm": {
				"assembly": "    /* \"Contract/Game.sol\":61:313  contract SelfDestructFactory {... */\n  mstore(0x40, 0x80)\n  callvalue\n  dup1\n  iszero\n  tag_1\n  jumpi\n  0x00\n  dup1\n  revert\ntag_1:\n  pop\n  dataSize(sub_0)\n  dup1\n  dataOffset(sub_0)\n  0x00\n  codecopy\n  0x00\n  return\nstop\n\nsub_0: assembly {\n        /* \"Contract/Game.sol\":61:313  contract SelfDestructFactory {... */\n      mstore(0x40, 0x80)\n      jumpi(tag_1, lt(calldatasize, 0x04))\n      shr(0xe0, calldataload(0x00))\n      dup1\n      0x259d18dd\n      eq\n      tag_2\n      jumpi\n    tag_1:\n      0x00\n      dup1\n      revert\n        /* \"Contract/Game.sol\":97:310  function deployAndDestroy(address payable vault) external payable {... */\n    tag_2:\n      tag_3\n      0x04\n      dup1\n      calldatasize\n      sub\n      dup2\n      add\n      swap1\n      tag_4\n      swap2\n      swap1\n      tag_5\n      jump\t// in\n    tag_4:\n      tag_6\n      jump\t// in\n    tag_3:\n      stop\n    tag_6:\n        /* \"Contract/Game.sol\":195:207  0.0005 ether */\n      0x01c6bf52634000\n        /* \"Contract/Game.sol\":182:191  msg.value */\n      callvalue\n        /* \"Contract/Game.sol\":182:207  msg.value == 0.0005 ether */\n      eq\n        /* \"Contract/Game.sol\":174:242  require(msg.value == 0.0005 ether, \"Must send exactly 0.0005 ether\") */\n      tag_8\n      jumpi\n      mload(0x40)\n      0x08c379a000000000000000000000000000000000000000000000000000000000\n      dup2\n      mstore\n      0x04\n      add\n      tag_9\n      swap1\n      tag_10\n      jump\t// in\n    tag_9:\n      mload(0x40)\n      dup1\n      swap2\n      sub\n      swap1\n      revert\n    tag_8:\n        /* \"Contract/Game.sol\":285:294  msg.value */\n      callvalue\n        /* \"Contract/Game.sol\":296:301  vault */\n      dup2\n        /* \"Contract/Game.sol\":255:302  new SelfDestructSender{value: msg.value}(vault) */\n      mload(0x40)\n      tag_11\n      swap1\n      tag_12\n      jump\t// in\n    tag_11:\n      tag_13\n      swap2\n      swap1\n      tag_14\n      jump\t// in\n    tag_13:\n      mload(0x40)\n      dup1\n      swap2\n      sub\n      swap1\n      dup3\n      create\n      swap1\n      pop\n      dup1\n      iszero\n      dup1\n      iszero\n      tag_15\n      jumpi\n      returndatasize\n      0x00\n      dup1\n      returndatacopy\n      revert(0x00, returndatasize)\n    tag_15:\n      pop\n      pop\n        /* \"Contract/Game.sol\":97:310  function deployAndDestroy(address payable vault) external payable {... */\n      pop\n      jump\t// out\n    tag_12:\n      dataSize(sub_0)\n      dup1\n      dataOffset(sub_0)\n      dup4\n      codecopy\n      add\n      swap1\n      jump\t// out\n        /* \"#utility.yul\":88:205   */\n    tag_17:\n        /* \"#utility.yul\":197:198   */\n      0x00\n        /* \"#utility.yul\":194:195   */\n      dup1\n        /* \"#utility.yul\":187:199   */\n      revert\n        /* \"#utility.yul\":334:460   */\n    tag_19:\n        /* \"#utility.yul\":371:378   */\n      0x00\n        /* \"#utility.yul\":411:453   */\n      0xffffffffffffffffffffffffffffffffffffffff\n        /* \"#utility.yul\":404:409   */\n      dup3\n        /* \"#utility.yul\":400:454   */\n      and\n        /* \"#utility.yul\":389:454   */\n      swap1\n      pop\n        /* \"#utility.yul\":334:460   */\n      swap2\n      swap1\n      pop\n      jump\t// out\n        /* \"#utility.yul\":466:570   */\n    tag_20:\n        /* \"#utility.yul\":511:518   */\n      0x00\n        /* \"#utility.yul\":540:564   */\n      tag_33\n        /* \"#utility.yul\":558:563   */\n      dup3\n        /* \"#utility.yul\":540:564   */\n      tag_19\n      jump\t// in\n    tag_33:\n        /* \"#utility.yul\":529:564   */\n      swap1\n      pop\n        /* \"#utility.yul\":466:570   */\n      swap2\n      swap1\n      pop\n      jump\t// out\n        /* \"#utility.yul\":576:714   */\n    tag_21:\n        /* \"#utility.yul\":657:689   */\n      tag_35\n        /* \"#utility.yul\":683:688   */\n      dup2\n        /* \"#utility.yul\":657:689   */\n      tag_20\n      jump\t// in\n    tag_35:\n        /* \"#utility.yul\":650:655   */\n      dup2\n        /* \"#utility.yul\":647:690   */\n      eq\n        /* \"#utility.yul\":637:708   */\n      tag_36\n      jumpi\n        /* \"#utility.yul\":704:705   */\n      0x00\n        /* \"#utility.yul\":701:702   */\n      dup1\n        /* \"#utility.yul\":694:706   */\n      revert\n        /* \"#utility.yul\":637:708   */\n    tag_36:\n        /* \"#utility.yul\":576:714   */\n      pop\n      jump\t// out\n        /* \"#utility.yul\":720:875   */\n    tag_22:\n        /* \"#utility.yul\":774:779   */\n      0x00\n        /* \"#utility.yul\":812:818   */\n      dup2\n        /* \"#utility.yul\":799:819   */\n      calldataload\n        /* \"#utility.yul\":790:819   */\n      swap1\n      pop\n        /* \"#utility.yul\":828:869   */\n      tag_38\n        /* \"#utility.yul\":863:868   */\n      dup2\n        /* \"#utility.yul\":828:869   */\n      tag_21\n      jump\t// in\n    tag_38:\n        /* \"#utility.yul\":720:875   */\n      swap3\n      swap2\n      pop\n      pop\n      jump\t// out\n        /* \"#utility.yul\":881:1226   */\n    tag_5:\n        /* \"#utility.yul\":948:954   */\n      0x00\n        /* \"#utility.yul\":997:999   */\n      0x20\n        /* \"#utility.yul\":985:994   */\n      dup3\n        /* \"#utility.yul\":976:983   */\n      dup5\n        /* \"#utility.yul\":972:995   */\n      sub\n        /* \"#utility.yul\":968:1000   */\n      slt\n        /* \"#utility.yul\":965:1084   */\n      iszero\n      tag_40\n      jumpi\n        /* \"#utility.yul\":1003:1082   */\n      tag_41\n      tag_17\n      jump\t// in\n    tag_41:\n        /* \"#utility.yul\":965:1084   */\n    tag_40:\n        /* \"#utility.yul\":1123:1124   */\n      0x00\n        /* \"#utility.yul\":1148:1209   */\n      tag_42\n        /* \"#utility.yul\":1201:1208   */\n      dup5\n        /* \"#utility.yul\":1192:1198   */\n      dup3\n        /* \"#utility.yul\":1181:1190   */\n      dup6\n        /* \"#utility.yul\":1177:1199   */\n      add\n        /* \"#utility.yul\":1148:1209   */\n      tag_22\n      jump\t// in\n    tag_42:\n        /* \"#utility.yul\":1138:1209   */\n      swap2\n      pop\n        /* \"#utility.yul\":1094:1219   */\n      pop\n        /* \"#utility.yul\":881:1226   */\n      swap3\n      swap2\n      pop\n      pop\n      jump\t// out\n        /* \"#utility.yul\":1232:1401   */\n    tag_23:\n        /* \"#utility.yul\":1316:1327   */\n      0x00\n        /* \"#utility.yul\":1350:1356   */\n      dup3\n        /* \"#utility.yul\":1345:1348   */\n      dup3\n        /* \"#utility.yul\":1338:1357   */\n      mstore\n        /* \"#utility.yul\":1390:1394   */\n      0x20\n        /* \"#utility.yul\":1385:1388   */\n      dup3\n        /* \"#utility.yul\":1381:1395   */\n      add\n        /* \"#utility.yul\":1366:1395   */\n      swap1\n      pop\n        /* \"#utility.yul\":1232:1401   */\n      swap3\n      swap2\n      pop\n      pop\n      jump\t// out\n        /* \"#utility.yul\":1407:1587   */\n    tag_24:\n        /* \"#utility.yul\":1547:1579   */\n      0x4d7573742073656e642065786163746c7920302e303030352065746865720000\n        /* \"#utility.yul\":1543:1544   */\n      0x00\n        /* \"#utility.yul\":1535:1541   */\n      dup3\n        /* \"#utility.yul\":1531:1545   */\n      add\n        /* \"#utility.yul\":1524:1580   */\n      mstore\n        /* \"#utility.yul\":1407:1587   */\n      pop\n      jump\t// out\n        /* \"#utility.yul\":1593:1959   */\n    tag_25:\n        /* \"#utility.yul\":1735:1738   */\n      0x00\n        /* \"#utility.yul\":1756:1823   */\n      tag_46\n        /* \"#utility.yul\":1820:1822   */\n      0x1e\n        /* \"#utility.yul\":1815:1818   */\n      dup4\n        /* \"#utility.yul\":1756:1823   */\n      tag_23\n      jump\t// in\n    tag_46:\n        /* \"#utility.yul\":1749:1823   */\n      swap2\n      pop\n        /* \"#utility.yul\":1832:1925   */\n      tag_47\n        /* \"#utility.yul\":1921:1924   */\n      dup3\n        /* \"#utility.yul\":1832:1925   */\n      tag_24\n      jump\t// in\n    tag_47:\n        /* \"#utility.yul\":1950:1952   */\n      0x20\n        /* \"#utility.yul\":1945:1948   */\n      dup3\n        /* \"#utility.yul\":1941:1953   */\n      add\n        /* \"#utility.yul\":1934:1953   */\n      swap1\n      pop\n        /* \"#utility.yul\":1593:1959   */\n      swap2\n      swap1\n      pop\n      jump\t// out\n        /* \"#utility.yul\":1965:2384   */\n    tag_10:\n        /* \"#utility.yul\":2131:2135   */\n      0x00\n        /* \"#utility.yul\":2169:2171   */\n      0x20\n        /* \"#utility.yul\":2158:2167   */\n      dup3\n        /* \"#utility.yul\":2154:2172   */\n      add\n        /* \"#utility.yul\":2146:2172   */\n      swap1\n      pop\n        /* \"#utility.yul\":2218:2227   */\n      dup2\n        /* \"#utility.yul\":2212:2216   */\n      dup2\n        /* \"#utility.yul\":2208:2228   */\n      sub\n        /* \"#utility.yul\":2204:2205   */\n      0x00\n        /* \"#utility.yul\":2193:2202   */\n      dup4\n        /* \"#utility.yul\":2189:2206   */\n      add\n        /* \"#utility.yul\":2182:2229   */\n      mstore\n        /* \"#utility.yul\":2246:2377   */\n      tag_49\n        /* \"#utility.yul\":2372:2376   */\n      dup2\n        /* \"#utility.yul\":2246:2377   */\n      tag_25\n      jump\t// in\n    tag_49:\n        /* \"#utility.yul\":2238:2377   */\n      swap1\n      pop\n        /* \"#utility.yul\":1965:2384   */\n      swap2\n      swap1\n      pop\n      jump\t// out\n        /* \"#utility.yul\":2390:2532   */\n    tag_26:\n        /* \"#utility.yul\":2493:2525   */\n      tag_51\n        /* \"#utility.yul\":2519:2524   */\n      dup2\n        /* \"#utility.yul\":2493:2525   */\n      tag_20\n      jump\t// in\n    tag_51:\n        /* \"#utility.yul\":2488:2491   */\n      dup3\n        /* \"#utility.yul\":2481:2526   */\n      mstore\n        /* \"#utility.yul\":2390:2532   */\n      pop\n      pop\n      jump\t// out\n        /* \"#utility.yul\":2538:2792   */\n    tag_14:\n        /* \"#utility.yul\":2647:2651   */\n      0x00\n        /* \"#utility.yul\":2685:2687   */\n      0x20\n        /* \"#utility.yul\":2674:2683   */\n      dup3\n        /* \"#utility.yul\":2670:2688   */\n      add\n        /* \"#utility.yul\":2662:2688   */\n      swap1\n      pop\n        /* \"#utility.yul\":2698:2785   */\n      tag_53\n        /* \"#utility.yul\":2782:2783   */\n      0x00\n        /* \"#utility.yul\":2771:2780   */\n      dup4\n        /* \"#utility.yul\":2767:2784   */\n      add\n        /* \"#utility.yul\":2758:2764   */\n      dup5\n        /* \"#utility.yul\":2698:2785   */\n      tag_26\n      jump\t// in\n    tag_53:\n        /* \"#utility.yul\":2538:2792   */\n      swap3\n      swap2\n      pop\n      pop\n      jump\t// out\n    stop\n\n    sub_0: assembly {\n            /* \"Contract/Game.sol\":317:436  contract SelfDestructSender {... */\n          mstore(0x40, 0x80)\n            /* \"Contract/Game.sol\":352:433  constructor(address payable vault) payable {... */\n          mload(0x40)\n          sub(codesize, bytecodeSize)\n          dup1\n          bytecodeSize\n          dup4\n          codecopy\n          dup2\n          dup2\n          add\n          0x40\n          mstore\n          dup2\n          add\n          swap1\n          tag_1\n          swap2\n          swap1\n          tag_2\n          jump\t// in\n        tag_1:\n            /* \"Contract/Game.sol\":419:424  vault */\n          dup1\n            /* \"Contract/Game.sol\":406:425  selfdestruct(vault) */\n          0xffffffffffffffffffffffffffffffffffffffff\n          and\n          selfdestruct\n            /* \"#utility.yul\":88:205   */\n        tag_7:\n            /* \"#utility.yul\":197:198   */\n          0x00\n            /* \"#utility.yul\":194:195   */\n          dup1\n            /* \"#utility.yul\":187:199   */\n          revert\n            /* \"#utility.yul\":334:460   */\n        tag_9:\n            /* \"#utility.yul\":371:378   */\n          0x00\n            /* \"#utility.yul\":411:453   */\n          0xffffffffffffffffffffffffffffffffffffffff\n            /* \"#utility.yul\":404:409   */\n          dup3\n            /* \"#utility.yul\":400:454   */\n          and\n            /* \"#utility.yul\":389:454   */\n          swap1\n          pop\n            /* \"#utility.yul\":334:460   */\n          swap2\n          swap1\n          pop\n          jump\t// out\n            /* \"#utility.yul\":466:570   */\n        tag_10:\n            /* \"#utility.yul\":511:518   */\n          0x00\n            /* \"#utility.yul\":540:564   */\n          tag_19\n            /* \"#utility.yul\":558:563   */\n          dup3\n            /* \"#utility.yul\":540:564   */\n          tag_9\n          jump\t// in\n        tag_19:\n            /* \"#utility.yul\":529:564   */\n          swap1\n          pop\n            /* \"#utility.yul\":466:570   */\n          swap2\n          swap1\n          pop\n          jump\t// out\n            /* \"#utility.yul\":576:714   */\n        tag_11:\n            /* \"#utility.yul\":657:689   */\n          tag_21\n            /* \"#utility.yul\":683:688   */\n          dup2\n            /* \"#utility.yul\":657:689   */\n          tag_10\n          jump\t// in\n        tag_21:\n            /* \"#utility.yul\":650:655   */\n          dup2\n            /* \"#utility.yul\":647:690   */\n          eq\n            /* \"#utility.yul\":637:708   */\n          tag_22\n          jumpi\n            /* \"#utility.yul\":704:705   */\n          0x00\n            /* \"#utility.yul\":701:702   */\n          dup1\n            /* \"#utility.yul\":694:706   */\n          revert\n            /* \"#utility.yul\":637:708   */\n        tag_22:\n            /* \"#utility.yul\":576:714   */\n          pop\n          jump\t// out\n            /* \"#utility.yul\":720:879   */\n        tag_12:\n            /* \"#utility.yul\":785:790   */\n          0x00\n            /* \"#utility.yul\":816:822   */\n          dup2\n            /* \"#utility.yul\":810:823   */\n          mload\n            /* \"#utility.yul\":801:823   */\n          swap1\n          pop\n            /* \"#utility.yul\":832:873   */\n          tag_24\n            /* \"#utility.yul\":867:872   */\n          dup2\n            /* \"#utility.yul\":832:873   */\n          tag_11\n          jump\t// in\n        tag_24:\n            /* \"#utility.yul\":720:879   */\n          swap3\n          swap2\n          pop\n          pop\n          jump\t// out\n            /* \"#utility.yul\":885:1252   */\n        tag_2:\n            /* \"#utility.yul\":963:969   */\n          0x00\n            /* \"#utility.yul\":1012:1014   */\n          0x20\n            /* \"#utility.yul\":1000:1009   */\n          dup3\n            /* \"#utility.yul\":991:998   */\n          dup5\n            /* \"#utility.yul\":987:1010   */\n          sub\n            /* \"#utility.yul\":983:1015   */\n          slt\n            /* \"#utility.yul\":980:1099   */\n          iszero\n          tag_26\n          jumpi\n            /* \"#utility.yul\":1018:1097   */\n          tag_27\n          tag_7\n          jump\t// in\n        tag_27:\n            /* \"#utility.yul\":980:1099   */\n        tag_26:\n            /* \"#utility.yul\":1138:1139   */\n          0x00\n            /* \"#utility.yul\":1163:1235   */\n          tag_28\n            /* \"#utility.yul\":1227:1234   */\n          dup5\n            /* \"#utility.yul\":1218:1224   */\n          dup3\n            /* \"#utility.yul\":1207:1216   */\n          dup6\n            /* \"#utility.yul\":1203:1225   */\n          add\n            /* \"#utility.yul\":1163:1235   */\n          tag_12\n          jump\t// in\n        tag_28:\n            /* \"#utility.yul\":1153:1235   */\n          swap2\n          pop\n            /* \"#utility.yul\":1109:1245   */\n          pop\n            /* \"#utility.yul\":885:1252   */\n          swap3\n          swap2\n          pop\n          pop\n          jump\t// out\n        stop\n\n        sub_0: assembly {\n                /* \"Contract/Game.sol\":317:436  contract SelfDestructSender {... */\n              mstore(0x40, 0x80)\n              0x00\n              dup1\n              revert\n\n            auxdata: 0xa264697066735822122076190c4d3894ec46247b3eb6e45750a2f801610a3363dac81a781f5bd48507d064736f6c634300081a0033\n        }\n    }\n\n    auxdata: 0xa26469706673582212200e80818338a8b5ceacf3a36864e866cc4d01c54bc7324d0ec07cd7cf6f3e316c64736f6c634300081a0033\n}\n",
				"bytecode": {
					"linkReferences": {},
					"object": "6080604052348015600e575f80fd5b506102e38061001c5f395ff3fe60806040526004361061001d575f3560e01c8063259d18dd14610021575b5f80fd5b61003b60048036038101906100369190610128565b61003d565b005b6601c6bf526340003414610086576040517f08c379a000000000000000000000000000000000000000000000000000000000815260040161007d906101ad565b60405180910390fd5b3481604051610094906100be565b61009e91906101da565b6040518091039082f09050801580156100b9573d5f803e3d5ffd5b505050565b60ba806101f483390190565b5f80fd5b5f73ffffffffffffffffffffffffffffffffffffffff82169050919050565b5f6100f7826100ce565b9050919050565b610107816100ed565b8114610111575f80fd5b50565b5f81359050610122816100fe565b92915050565b5f6020828403121561013d5761013c6100ca565b5b5f61014a84828501610114565b91505092915050565b5f82825260208201905092915050565b7f4d7573742073656e642065786163746c7920302e3030303520657468657200005f82015250565b5f610197601e83610153565b91506101a282610163565b602082019050919050565b5f6020820190508181035f8301526101c48161018b565b9050919050565b6101d4816100ed565b82525050565b5f6020820190506101ed5f8301846101cb565b9291505056fe60806040526040516100ba3803806100ba8339818101604052810190602391906093565b8073ffffffffffffffffffffffffffffffffffffffff16ff5b5f80fd5b5f73ffffffffffffffffffffffffffffffffffffffff82169050919050565b5f6067826040565b9050919050565b607581605f565b8114607e575f80fd5b50565b5f81519050608d81606e565b92915050565b5f6020828403121560a55760a4603c565b5b5f60b0848285016081565b9150509291505056fea26469706673582212200e80818338a8b5ceacf3a36864e866cc4d01c54bc7324d0ec07cd7cf6f3e316c64736f6c634300081a0033",
					"opcodes": "PUSH1 0x80 PUSH1 0x40 MSTORE CALLVALUE DUP1 ISZERO PUSH1 0xE JUMPI PUSH0 DUP1 REVERT JUMPDEST POP PUSH2 0x2E3 DUP1 PUSH2 0x1C PUSH0 CODECOPY PUSH0 RETURN INVALID PUSH1 0x80 PUSH1 0x40 MSTORE PUSH1 0x4 CALLDATASIZE LT PUSH2 0x1D JUMPI PUSH0 CALLDATALOAD PUSH1 0xE0 SHR DUP1 PUSH4 0x259D18DD EQ PUSH2 0x21 JUMPI JUMPDEST PUSH0 DUP1 REVERT JUMPDEST PUSH2 0x3B PUSH1 0x4 DUP1 CALLDATASIZE SUB DUP2 ADD SWAP1 PUSH2 0x36 SWAP2 SWAP1 PUSH2 0x128 JUMP JUMPDEST PUSH2 0x3D JUMP JUMPDEST STOP JUMPDEST PUSH7 0x1C6BF52634000 CALLVALUE EQ PUSH2 0x86 JUMPI PUSH1 0x40 MLOAD PUSH32 0x8C379A000000000000000000000000000000000000000000000000000000000 DUP2 MSTORE PUSH1 0x4 ADD PUSH2 0x7D SWAP1 PUSH2 0x1AD JUMP JUMPDEST PUSH1 0x40 MLOAD DUP1 SWAP2 SUB SWAP1 REVERT JUMPDEST CALLVALUE DUP2 PUSH1 0x40 MLOAD PUSH2 0x94 SWAP1 PUSH2 0xBE JUMP JUMPDEST PUSH2 0x9E SWAP2 SWAP1 PUSH2 0x1DA JUMP JUMPDEST PUSH1 0x40 MLOAD DUP1 SWAP2 SUB SWAP1 DUP3 CREATE SWAP1 POP DUP1 ISZERO DUP1 ISZERO PUSH2 0xB9 JUMPI RETURNDATASIZE PUSH0 DUP1 RETURNDATACOPY RETURNDATASIZE PUSH0 REVERT JUMPDEST POP POP POP JUMP JUMPDEST PUSH1 0xBA DUP1 PUSH2 0x1F4 DUP4 CODECOPY ADD SWAP1 JUMP JUMPDEST PUSH0 DUP1 REVERT JUMPDEST PUSH0 PUSH20 0xFFFFFFFFFFFFFFFFFFFFFFFFFFFFFFFFFFFFFFFF DUP3 AND SWAP1 POP SWAP2 SWAP1 POP JUMP JUMPDEST PUSH0 PUSH2 0xF7 DUP3 PUSH2 0xCE JUMP JUMPDEST SWAP1 POP SWAP2 SWAP1 POP JUMP JUMPDEST PUSH2 0x107 DUP2 PUSH2 0xED JUMP JUMPDEST DUP2 EQ PUSH2 0x111 JUMPI PUSH0 DUP1 REVERT JUMPDEST POP JUMP JUMPDEST PUSH0 DUP2 CALLDATALOAD SWAP1 POP PUSH2 0x122 DUP2 PUSH2 0xFE JUMP JUMPDEST SWAP3 SWAP2 POP POP JUMP JUMPDEST PUSH0 PUSH1 0x20 DUP3 DUP5 SUB SLT ISZERO PUSH2 0x13D JUMPI PUSH2 0x13C PUSH2 0xCA JUMP JUMPDEST JUMPDEST PUSH0 PUSH2 0x14A DUP5 DUP3 DUP6 ADD PUSH2 0x114 JUMP JUMPDEST SWAP2 POP POP SWAP3 SWAP2 POP POP JUMP JUMPDEST PUSH0 DUP3 DUP3 MSTORE PUSH1 0x20 DUP3 ADD SWAP1 POP SWAP3 SWAP2 POP POP JUMP JUMPDEST PUSH32 0x4D7573742073656E642065786163746C7920302E303030352065746865720000 PUSH0 DUP3 ADD MSTORE POP JUMP JUMPDEST PUSH0 PUSH2 0x197 PUSH1 0x1E DUP4 PUSH2 0x153 JUMP JUMPDEST SWAP2 POP PUSH2 0x1A2 DUP3 PUSH2 0x163 JUMP JUMPDEST PUSH1 0x20 DUP3 ADD SWAP1 POP SWAP2 SWAP1 POP JUMP JUMPDEST PUSH0 PUSH1 0x20 DUP3 ADD SWAP1 POP DUP2 DUP2 SUB PUSH0 DUP4 ADD MSTORE PUSH2 0x1C4 DUP2 PUSH2 0x18B JUMP JUMPDEST SWAP1 POP SWAP2 SWAP1 POP JUMP JUMPDEST PUSH2 0x1D4 DUP2 PUSH2 0xED JUMP JUMPDEST DUP3 MSTORE POP POP JUMP JUMPDEST PUSH0 PUSH1 0x20 DUP3 ADD SWAP1 POP PUSH2 0x1ED PUSH0 DUP4 ADD DUP5 PUSH2 0x1CB JUMP JUMPDEST SWAP3 SWAP2 POP POP JUMP INVALID PUSH1 0x80 PUSH1 0x40 MSTORE PUSH1 0x40 MLOAD PUSH2 0xBA CODESIZE SUB DUP1 PUSH2 0xBA DUP4 CODECOPY DUP2 DUP2 ADD PUSH1 0x40 MSTORE DUP2 ADD SWAP1 PUSH1 0x23 SWAP2 SWAP1 PUSH1 0x93 JUMP JUMPDEST DUP1 PUSH20 0xFFFFFFFFFFFFFFFFFFFFFFFFFFFFFFFFFFFFFFFF AND SELFDESTRUCT JUMPDEST PUSH0 DUP1 REVERT JUMPDEST PUSH0 PUSH20 0xFFFFFFFFFFFFFFFFFFFFFFFFFFFFFFFFFFFFFFFF DUP3 AND SWAP1 POP SWAP2 SWAP1 POP JUMP JUMPDEST PUSH0 PUSH1 0x67 DUP3 PUSH1 0x40 JUMP JUMPDEST SWAP1 POP SWAP2 SWAP1 POP JUMP JUMPDEST PUSH1 0x75 DUP2 PUSH1 0x5F JUMP JUMPDEST DUP2 EQ PUSH1 0x7E JUMPI PUSH0 DUP1 REVERT JUMPDEST POP JUMP JUMPDEST PUSH0 DUP2 MLOAD SWAP1 POP PUSH1 0x8D DUP2 PUSH1 0x6E JUMP JUMPDEST SWAP3 SWAP2 POP POP JUMP JUMPDEST PUSH0 PUSH1 0x20 DUP3 DUP5 SUB SLT ISZERO PUSH1 0xA5 JUMPI PUSH1 0xA4 PUSH1 0x3C JUMP JUMPDEST JUMPDEST PUSH0 PUSH1 0xB0 DUP5 DUP3 DUP6 ADD PUSH1 0x81 JUMP JUMPDEST SWAP2 POP POP SWAP3 SWAP2 POP POP JUMP INVALID LOG2 PUSH5 0x6970667358 0x22 SLT KECCAK256 0xE DUP1 DUP2 DUP4 CODESIZE 0xA8 0xB5 0xCE 0xAC RETURN LOG3 PUSH9 0x64E866CC4D01C54BC7 ORIGIN 0x4D 0xE 0xC0 PUSH29 0xD7CF6F3E316C64736F6C634300081A0033000000000000000000000000 "
				},
				"gasEstimates": {
					"creation": {
						"codeDepositCost": "147800",
						"executionCost": "194",
						"totalCost": "147994"
					},
					"external": {
						"deployAndDestroy(address)": "infinite"
					}
				},
				"methodIdentifiers": {
					"deployAndDestroy(address)": "259d18dd"
				}
			},
			"storageLayout": {
				"storage": [],
				"types": null
			},
			"userdoc": {
				"kind": "user",
				"methods": {},
				"version": 1
			}
		}
	}
}